{"abi":[{"type":"constructor","inputs":[{"name":"factory","type":"address","internalType":"contract IEscrowFactory"},{"name":"lop","type":"address","internalType":"contract IOrderMixin"},{"name":"initialOwner","type":"address","internalType":"address"}],"stateMutability":"nonpayable"},{"type":"receive","stateMutability":"payable"},{"type":"function","name":"arbitraryCalls","inputs":[{"name":"targets","type":"address[]","internalType":"address[]"},{"name":"arguments","type":"bytes[]","internalType":"bytes[]"}],"outputs":[],"stateMutability":"nonpayable"},{"type":"function","name":"cancel","inputs":[{"name":"escrow","type":"address","internalType":"contract IEscrow"},{"name":"immutables","type":"tuple","internalType":"struct IBaseEscrow.Immutables","components":[{"name":"orderHash","type":"bytes32","internalType":"bytes32"},{"name":"hashlock","type":"bytes32","internalType":"bytes32"},{"name":"maker","type":"uint256","internalType":"Address"},{"name":"taker","type":"uint256","internalType":"Address"},{"name":"token","type":"uint256","internalType":"Address"},{"name":"amount","type":"uint256","internalType":"uint256"},{"name":"safetyDeposit","type":"uint256","internalType":"uint256"},{"name":"timelocks","type":"uint256","internalType":"Timelocks"}]}],"outputs":[],"stateMutability":"nonpayable"},{"type":"function","name":"deployDst","inputs":[{"name":"dstImmutables","type":"tuple","internalType":"struct IBaseEscrow.Immutables","components":[{"name":"orderHash","type":"bytes32","internalType":"bytes32"},{"name":"hashlock","type":"bytes32","internalType":"bytes32"},{"name":"maker","type":"uint256","internalType":"Address"},{"name":"taker","type":"uint256","internalType":"Address"},{"name":"token","type":"uint256","internalType":"Address"},{"name":"amount","type":"uint256","internalType":"uint256"},{"name":"safetyDeposit","type":"uint256","internalType":"uint256"},{"name":"timelocks","type":"uint256","internalType":"Timelocks"}]},{"name":"srcCancellationTimestamp","type":"uint256","internalType":"uint256"}],"outputs":[],"stateMutability":"payable"},{"type":"function","name":"deploySrc","inputs":[{"name":"immutables","type":"tuple","internalType":"struct IBaseEscrow.Immutables","components":[{"name":"orderHash","type":"bytes32","internalType":"bytes32"},{"name":"hashlock","type":"bytes32","internalType":"bytes32"},{"name":"maker","type":"uint256","internalType":"Address"},{"name":"taker","type":"uint256","internalType":"Address"},{"name":"token","type":"uint256","internalType":"Address"},{"name":"amount","type":"uint256","internalType":"uint256"},{"name":"safetyDeposit","type":"uint256","internalType":"uint256"},{"name":"timelocks","type":"uint256","internalType":"Timelocks"}]},{"name":"order","type":"tuple","internalType":"struct IOrderMixin.Order","components":[{"name":"salt","type":"uint256","internalType":"uint256"},{"name":"maker","type":"uint256","internalType":"Address"},{"name":"receiver","type":"uint256","internalType":"Address"},{"name":"makerAsset","type":"uint256","internalType":"Address"},{"name":"takerAsset","type":"uint256","internalType":"Address"},{"name":"makingAmount","type":"uint256","internalType":"uint256"},{"name":"takingAmount","type":"uint256","internalType":"uint256"},{"name":"makerTraits","type":"uint256","internalType":"MakerTraits"}]},{"name":"r","type":"bytes32","internalType":"bytes32"},{"name":"vs","type":"bytes32","internalType":"bytes32"},{"name":"amount","type":"uint256","internalType":"uint256"},{"name":"takerTraits","type":"uint256","internalType":"TakerTraits"},{"name":"args","type":"bytes","internalType":"bytes"}],"outputs":[],"stateMutability":"payable"},{"type":"function","name":"owner","inputs":[],"outputs":[{"name":"","type":"address","internalType":"address"}],"stateMutability":"view"},{"type":"function","name":"renounceOwnership","inputs":[],"outputs":[],"stateMutability":"nonpayable"},{"type":"function","name":"transferOwnership","inputs":[{"name":"newOwner","type":"address","internalType":"address"}],"outputs":[],"stateMutability":"nonpayable"},{"type":"function","name":"withdraw","inputs":[{"name":"escrow","type":"address","internalType":"contract IEscrow"},{"name":"secret","type":"bytes32","internalType":"bytes32"},{"name":"immutables","type":"tuple","internalType":"struct IBaseEscrow.Immutables","components":[{"name":"orderHash","type":"bytes32","internalType":"bytes32"},{"name":"hashlock","type":"bytes32","internalType":"bytes32"},{"name":"maker","type":"uint256","internalType":"Address"},{"name":"taker","type":"uint256","internalType":"Address"},{"name":"token","type":"uint256","internalType":"Address"},{"name":"amount","type":"uint256","internalType":"uint256"},{"name":"safetyDeposit","type":"uint256","internalType":"uint256"},{"name":"timelocks","type":"uint256","internalType":"Timelocks"}]}],"outputs":[],"stateMutability":"nonpayable"},{"type":"event","name":"OwnershipTransferred","inputs":[{"name":"previousOwner","type":"address","indexed":true,"internalType":"address"},{"name":"newOwner","type":"address","indexed":true,"internalType":"address"}],"anonymous":false},{"type":"error","name":"InvalidLength","inputs":[]},{"type":"error","name":"LengthMismatch","inputs":[]},{"type":"error","name":"NativeTokenSendingFailure","inputs":[]},{"type":"error","name":"OwnableInvalidOwner","inputs":[{"name":"owner","type":"address","internalType":"address"}]},{"type":"error","name":"OwnableUnauthorizedAccount","inputs":[{"name":"account","type":"address","internalType":"address"}]}],"bytecode":{"object":"0x60c060405234801562000010575f80fd5b5060405162001aa538038062001aa58339818101604052810190620000369190620002d7565b805f73ffffffffffffffffffffffffffffffffffffffff168173ffffffffffffffffffffffffffffffffffffffff1603620000aa575f6040517f1e4fbdf7000000000000000000000000000000000000000000000000000000008152600401620000a1919062000341565b60405180910390fd5b620000bb816200012d60201b60201c565b508273ffffffffffffffffffffffffffffffffffffffff1660808173ffffffffffffffffffffffffffffffffffffffff16815250508173ffffffffffffffffffffffffffffffffffffffff1660a08173ffffffffffffffffffffffffffffffffffffffff16815250505050506200035c565b5f805f9054906101000a900473ffffffffffffffffffffffffffffffffffffffff169050815f806101000a81548173ffffffffffffffffffffffffffffffffffffffff021916908373ffffffffffffffffffffffffffffffffffffffff1602179055508173ffffffffffffffffffffffffffffffffffffffff168173ffffffffffffffffffffffffffffffffffffffff167f8be0079c531659141344cd1fd0a4f28419497f9722a3daafe3b4186f6b6457e060405160405180910390a35050565b5f80fd5b5f73ffffffffffffffffffffffffffffffffffffffff82169050919050565b5f6200021d82620001f2565b9050919050565b5f620002308262000211565b9050919050565b620002428162000224565b81146200024d575f80fd5b50565b5f81519050620002608162000237565b92915050565b5f620002728262000211565b9050919050565b620002848162000266565b81146200028f575f80fd5b50565b5f81519050620002a28162000279565b92915050565b620002b38162000211565b8114620002be575f80fd5b50565b5f81519050620002d181620002a8565b92915050565b5f805f60608486031215620002f157620002f0620001ee565b5b5f620003008682870162000250565b9350506020620003138682870162000292565b92505060406200032686828701620002c1565b9150509250925092565b6200033b8162000211565b82525050565b5f602082019050620003565f83018462000330565b92915050565b60805160a051611720620003855f395f61062701525f8181610338015261049e01526117205ff3fe60806040526004361061007e575f3560e01c80638da5cb5b1161004d5780638da5cb5b1461010b578063a4fc705a14610135578063ca2182761461015d578063f2fde38b1461017957610085565b80631f3177ba146100895780632c3c9a37146100b1578063318b0562146100d9578063715018a6146100f557610085565b3661008557005b5f80fd5b348015610094575f80fd5b506100af60048036038101906100aa91906109a6565b6101a1565b005b3480156100bc575f80fd5b506100d760048036038101906100d29190610ae5565b6102c1565b005b6100f360048036038101906100ee9190610b69565b61032e565b005b348015610100575f80fd5b506101096103c4565b005b348015610116575f80fd5b5061011f6103d7565b60405161012c9190610bb8565b60405180910390f35b348015610140575f80fd5b5061015b60048036038101906101569190610bd1565b6103fe565b005b61017760048036038101906101729190610cae565b610468565b005b348015610184575f80fd5b5061019f600480360381019061019a9190610d9c565b6106d9565b005b6101a961075d565b5f8484905090508282905085859050146101ef576040517fff633a3800000000000000000000000000000000000000000000000000000000815260040160405180910390fd5b5f5b818110156102b9575f86868381811061020d5761020c610dc7565b5b90506020020160208101906102229190610d9c565b73ffffffffffffffffffffffffffffffffffffffff1685858481811061024b5761024a610dc7565b5b905060200281019061025d9190610e00565b60405161026b929190610e9e565b5f604051808303815f865af19150503d805f81146102a4576040519150601f19603f3d011682016040523d82523d5f602084013e6102a9565b606091505b50509050508060010190506101f1565b505050505050565b8273ffffffffffffffffffffffffffffffffffffffff16632330570383836040518363ffffffff1660e01b81526004016102fc9291906110b7565b5f604051808303815f87803b158015610313575f80fd5b505af1158015610325573d5f803e3d5ffd5b50505050505050565b61033661075d565b7f000000000000000000000000000000000000000000000000000000000000000073ffffffffffffffffffffffffffffffffffffffff1663dea024e43484846040518463ffffffff1660e01b81526004016103929291906110ee565b5f604051808303818588803b1580156103a9575f80fd5b505af11580156103bb573d5f803e3d5ffd5b50505050505050565b6103cc61075d565b6103d55f6107e4565b565b5f805f9054906101000a900473ffffffffffffffffffffffffffffffffffffffff16905090565b8173ffffffffffffffffffffffffffffffffffffffff166390d3252f826040518263ffffffff1660e01b81526004016104379190611117565b5f604051808303815f87803b15801561044e575f80fd5b505af1158015610460573d5f803e3d5ffd5b505050505050565b61047061075d565b5f888036038101906104829190611284565b90506104928960e00135426108a5565b8160e00181815250505f7f000000000000000000000000000000000000000000000000000000000000000073ffffffffffffffffffffffffffffffffffffffff1663fb6bd47e836040518263ffffffff1660e01b81526004016104f59190611350565b602060405180830381865afa158015610510573d5f803e3d5ffd5b505050506040513d601f19601f82011682018060405250810190610534919061137e565b90505f8173ffffffffffffffffffffffffffffffffffffffff168360c0015160405161055f906113cc565b5f6040518083038185875af1925050503d805f8114610599576040519150601f19603f3d011682016040523d82523d5f602084013e61059e565b606091505b50509050806105d9576040517f8a0332d500000000000000000000000000000000000000000000000000000000815260040160405180910390fd5b7f0800000000000000000000000000000000000000000000000000000000000000861795505f82868660405160200161061493929190611425565b60405160208183030381529060405290507f000000000000000000000000000000000000000000000000000000000000000073ffffffffffffffffffffffffffffffffffffffff1663f497df758c8c8c8c8c876040518763ffffffff1660e01b815260040161068896959493929190611606565b6060604051808303815f875af11580156106a4573d5f803e3d5ffd5b505050506040513d601f19601f820116820180604052508101906106c8919061169a565b505050505050505050505050505050565b6106e161075d565b5f73ffffffffffffffffffffffffffffffffffffffff168173ffffffffffffffffffffffffffffffffffffffff1603610751575f6040517f1e4fbdf70000000000000000000000000000000000000000000000000000000081526004016107489190610bb8565b60405180910390fd5b61075a816107e4565b50565b6107656108d8565b73ffffffffffffffffffffffffffffffffffffffff166107836103d7565b73ffffffffffffffffffffffffffffffffffffffff16146107e2576107a66108d8565b6040517f118cdaa70000000000000000000000000000000000000000000000000000000081526004016107d99190610bb8565b60405180910390fd5b565b5f805f9054906101000a900473ffffffffffffffffffffffffffffffffffffffff169050815f806101000a81548173ffffffffffffffffffffffffffffffffffffffff021916908373ffffffffffffffffffffffffffffffffffffffff1602179055508173ffffffffffffffffffffffffffffffffffffffff168173ffffffffffffffffffffffffffffffffffffffff167f8be0079c531659141344cd1fd0a4f28419497f9722a3daafe3b4186f6b6457e060405160405180910390a35050565b5f60e082901b7fffffffff0000000000000000000000000000000000000000000000000000000019841617905092915050565b5f33905090565b5f604051905090565b5f80fd5b5f80fd5b5f80fd5b5f80fd5b5f80fd5b5f8083601f840112610911576109106108f0565b5b8235905067ffffffffffffffff81111561092e5761092d6108f4565b5b60208301915083602082028301111561094a576109496108f8565b5b9250929050565b5f8083601f840112610966576109656108f0565b5b8235905067ffffffffffffffff811115610983576109826108f4565b5b60208301915083602082028301111561099f5761099e6108f8565b5b9250929050565b5f805f80604085870312156109be576109bd6108e8565b5b5f85013567ffffffffffffffff8111156109db576109da6108ec565b5b6109e7878288016108fc565b9450945050602085013567ffffffffffffffff811115610a0a57610a096108ec565b5b610a1687828801610951565b925092505092959194509250565b5f73ffffffffffffffffffffffffffffffffffffffff82169050919050565b5f610a4d82610a24565b9050919050565b5f610a5e82610a43565b9050919050565b610a6e81610a54565b8114610a78575f80fd5b50565b5f81359050610a8981610a65565b92915050565b5f819050919050565b610aa181610a8f565b8114610aab575f80fd5b50565b5f81359050610abc81610a98565b92915050565b5f80fd5b5f6101008284031215610adc57610adb610ac2565b5b81905092915050565b5f805f6101408486031215610afd57610afc6108e8565b5b5f610b0a86828701610a7b565b9350506020610b1b86828701610aae565b9250506040610b2c86828701610ac6565b9150509250925092565b5f819050919050565b610b4881610b36565b8114610b52575f80fd5b50565b5f81359050610b6381610b3f565b92915050565b5f806101208385031215610b8057610b7f6108e8565b5b5f610b8d85828601610ac6565b925050610100610b9f85828601610b55565b9150509250929050565b610bb281610a43565b82525050565b5f602082019050610bcb5f830184610ba9565b92915050565b5f806101208385031215610be857610be76108e8565b5b5f610bf585828601610a7b565b9250506020610c0685828601610ac6565b9150509250929050565b5f6101008284031215610c2657610c25610ac2565b5b81905092915050565b610c3881610b36565b8114610c42575f80fd5b50565b5f81359050610c5381610c2f565b92915050565b5f8083601f840112610c6e57610c6d6108f0565b5b8235905067ffffffffffffffff811115610c8b57610c8a6108f4565b5b602083019150836001820283011115610ca757610ca66108f8565b5b9250929050565b5f805f805f805f806102a0898b031215610ccb57610cca6108e8565b5b5f610cd88b828c01610ac6565b985050610100610cea8b828c01610c10565b975050610200610cfc8b828c01610aae565b965050610220610d0e8b828c01610aae565b955050610240610d208b828c01610b55565b945050610260610d328b828c01610c45565b93505061028089013567ffffffffffffffff811115610d5457610d536108ec565b5b610d608b828c01610c59565b92509250509295985092959890939650565b610d7b81610a43565b8114610d85575f80fd5b50565b5f81359050610d9681610d72565b92915050565b5f60208284031215610db157610db06108e8565b5b5f610dbe84828501610d88565b91505092915050565b7f4e487b71000000000000000000000000000000000000000000000000000000005f52603260045260245ffd5b5f80fd5b5f80fd5b5f80fd5b5f8083356001602003843603038112610e1c57610e1b610df4565b5b80840192508235915067ffffffffffffffff821115610e3e57610e3d610df8565b5b602083019250600182023603831315610e5a57610e59610dfc565b5b509250929050565b5f81905092915050565b828183375f83830152505050565b5f610e858385610e62565b9350610e92838584610e6c565b82840190509392505050565b5f610eaa828486610e7a565b91508190509392505050565b610ebf81610a8f565b82525050565b5f610ed36020840184610aae565b905092915050565b610ee481610a8f565b82525050565b610ef381610b36565b8114610efd575f80fd5b50565b5f81359050610f0e81610eea565b92915050565b5f610f226020840184610f00565b905092915050565b5f819050919050565b5f610f4d610f48610f4384610b36565b610f2a565b610b36565b9050919050565b610f5d81610f33565b82525050565b5f610f716020840184610b55565b905092915050565b610f8281610b36565b82525050565b610f9181610b36565b8114610f9b575f80fd5b50565b5f81359050610fac81610f88565b92915050565b5f610fc06020840184610f9e565b905092915050565b610fd181610f33565b82525050565b6101008201610fe85f830183610ec5565b610ff45f850182610edb565b506110026020830183610ec5565b61100f6020850182610edb565b5061101d6040830183610f14565b61102a6040850182610f54565b506110386060830183610f14565b6110456060850182610f54565b506110536080830183610f14565b6110606080850182610f54565b5061106e60a0830183610f63565b61107b60a0850182610f79565b5061108960c0830183610f63565b61109660c0850182610f79565b506110a460e0830183610fb2565b6110b160e0850182610fc8565b50505050565b5f610120820190506110cb5f830185610eb6565b6110d86020830184610fd7565b9392505050565b6110e881610b36565b82525050565b5f610120820190506111025f830185610fd7565b6111106101008301846110df565b9392505050565b5f6101008201905061112b5f830184610fd7565b92915050565b5f80fd5b5f601f19601f8301169050919050565b7f4e487b71000000000000000000000000000000000000000000000000000000005f52604160045260245ffd5b61117b82611135565b810181811067ffffffffffffffff8211171561119a57611199611145565b5b80604052505050565b5f6111ac6108df565b90506111b88282611172565b919050565b5f61010082840312156111d3576111d2611131565b5b6111de6101006111a3565b90505f6111ed84828501610aae565b5f83015250602061120084828501610aae565b602083015250604061121484828501610f00565b604083015250606061122884828501610f00565b606083015250608061123c84828501610f00565b60808301525060a061125084828501610b55565b60a08301525060c061126484828501610b55565b60c08301525060e061127884828501610f9e565b60e08301525092915050565b5f610100828403121561129a576112996108e8565b5b5f6112a7848285016111bd565b91505092915050565b61010082015f8201516112c55f850182610edb565b5060208201516112d86020850182610edb565b5060408201516112eb6040850182610f54565b5060608201516112fe6060850182610f54565b5060808201516113116080850182610f54565b5060a082015161132460a0850182610f79565b5060c082015161133760c0850182610f79565b5060e082015161134a60e0850182610fc8565b50505050565b5f610100820190506113645f8301846112b0565b92915050565b5f8151905061137881610d72565b92915050565b5f60208284031215611393576113926108e8565b5b5f6113a08482850161136a565b91505092915050565b50565b5f6113b75f83610e62565b91506113c2826113a9565b5f82019050919050565b5f6113d6826113ac565b9150819050919050565b5f8160601b9050919050565b5f6113f6826113e0565b9050919050565b5f611407826113ec565b9050919050565b61141f61141a82610a43565b6113fd565b82525050565b5f611430828661140e565b601482019150611441828486610e7a565b9150819050949350505050565b61145781610b36565b8114611461575f80fd5b50565b5f813590506114728161144e565b92915050565b5f6114866020840184611464565b905092915050565b61149781610f33565b82525050565b61010082016114ae5f830183610f63565b6114ba5f850182610f79565b506114c86020830183610f14565b6114d56020850182610f54565b506114e36040830183610f14565b6114f06040850182610f54565b506114fe6060830183610f14565b61150b6060850182610f54565b506115196080830183610f14565b6115266080850182610f54565b5061153460a0830183610f63565b61154160a0850182610f79565b5061154f60c0830183610f63565b61155c60c0850182610f79565b5061156a60e0830183611478565b61157760e085018261148e565b50505050565b61158681610f33565b82525050565b5f81519050919050565b5f82825260208201905092915050565b5f5b838110156115c35780820151818401526020810190506115a8565b5f8484015250505050565b5f6115d88261158c565b6115e28185611596565b93506115f28185602086016115a6565b6115fb81611135565b840191505092915050565b5f6101a08201905061161a5f83018961149d565b611628610100830188610eb6565b611636610120830187610eb6565b6116446101408301866110df565b61165261016083018561157d565b81810361018083015261166581846115ce565b9050979650505050505050565b5f8151905061168081610b3f565b92915050565b5f8151905061169481610a98565b92915050565b5f805f606084860312156116b1576116b06108e8565b5b5f6116be86828701611672565b93505060206116cf86828701611672565b92505060406116e086828701611686565b915050925092509256fea26469706673582212203062f0cea65a73c6dcb3966218b43602fd09bfeb48384b9836674c4c5c31fb7964736f6c63430008170033","linkReferences":{}},"methodIdentifiers":{"arbitraryCalls(address[],bytes[])":"1f3177ba","cancel(address,(bytes32,bytes32,uint256,uint256,uint256,uint256,uint256,uint256))":"a4fc705a","deployDst((bytes32,bytes32,uint256,uint256,uint256,uint256,uint256,uint256),uint256)":"318b0562","deploySrc((bytes32,bytes32,uint256,uint256,uint256,uint256,uint256,uint256),(uint256,uint256,uint256,uint256,uint256,uint256,uint256,uint256),bytes32,bytes32,uint256,uint256,bytes)":"ca218276","owner()":"8da5cb5b","renounceOwnership()":"715018a6","transferOwnership(address)":"f2fde38b","withdraw(address,bytes32,(bytes32,bytes32,uint256,uint256,uint256,uint256,uint256,uint256))":"2c3c9a37"},"id":13}