{"abi":[{"type":"constructor","inputs":[{"name":"limitOrderProtocol","type":"address","internalType":"address"},{"name":"feeToken","type":"address","internalType":"contract IERC20"},{"name":"accessToken","type":"address","internalType":"contract IERC20"},{"name":"owner","type":"address","internalType":"address"},{"name":"rescueDelaySrc","type":"uint32","internalType":"uint32"},{"name":"rescueDelayDst","type":"uint32","internalType":"uint32"}],"stateMutability":"nonpayable"},{"type":"function","name":"ESCROW_DST_IMPLEMENTATION","inputs":[],"outputs":[{"name":"","type":"address","internalType":"address"}],"stateMutability":"view"},{"type":"function","name":"ESCROW_SRC_IMPLEMENTATION","inputs":[],"outputs":[{"name":"","type":"address","internalType":"address"}],"stateMutability":"view"},{"type":"function","name":"addressOfEscrowDst","inputs":[{"name":"immutables","type":"tuple","internalType":"struct IBaseEscrow.Immutables","components":[{"name":"orderHash","type":"bytes32","internalType":"bytes32"},{"name":"hashlock","type":"bytes32","internalType":"bytes32"},{"name":"maker","type":"uint256","internalType":"Address"},{"name":"taker","type":"uint256","internalType":"Address"},{"name":"token","type":"uint256","internalType":"Address"},{"name":"amount","type":"uint256","internalType":"uint256"},{"name":"safetyDeposit","type":"uint256","internalType":"uint256"},{"name":"timelocks","type":"uint256","internalType":"Timelocks"}]}],"outputs":[{"name":"","type":"address","internalType":"address"}],"stateMutability":"view"},{"type":"function","name":"addressOfEscrowSrc","inputs":[{"name":"immutables","type":"tuple","internalType":"struct IBaseEscrow.Immutables","components":[{"name":"orderHash","type":"bytes32","internalType":"bytes32"},{"name":"hashlock","type":"bytes32","internalType":"bytes32"},{"name":"maker","type":"uint256","internalType":"Address"},{"name":"taker","type":"uint256","internalType":"Address"},{"name":"token","type":"uint256","internalType":"Address"},{"name":"amount","type":"uint256","internalType":"uint256"},{"name":"safetyDeposit","type":"uint256","internalType":"uint256"},{"name":"timelocks","type":"uint256","internalType":"Timelocks"}]}],"outputs":[{"name":"","type":"address","internalType":"address"}],"stateMutability":"view"},{"type":"function","name":"createDstEscrow","inputs":[{"name":"dstImmutables","type":"tuple","internalType":"struct IBaseEscrow.Immutables","components":[{"name":"orderHash","type":"bytes32","internalType":"bytes32"},{"name":"hashlock","type":"bytes32","internalType":"bytes32"},{"name":"maker","type":"uint256","internalType":"Address"},{"name":"taker","type":"uint256","internalType":"Address"},{"name":"token","type":"uint256","internalType":"Address"},{"name":"amount","type":"uint256","internalType":"uint256"},{"name":"safetyDeposit","type":"uint256","internalType":"uint256"},{"name":"timelocks","type":"uint256","internalType":"Timelocks"}]},{"name":"srcCancellationTimestamp","type":"uint256","internalType":"uint256"}],"outputs":[],"stateMutability":"payable"},{"type":"function","name":"lastValidated","inputs":[{"name":"key","type":"bytes32","internalType":"bytes32"}],"outputs":[{"name":"index","type":"uint256","internalType":"uint256"},{"name":"leaf","type":"bytes32","internalType":"bytes32"}],"stateMutability":"view"},{"type":"function","name":"takerInteraction","inputs":[{"name":"","type":"tuple","internalType":"struct IOrderMixin.Order","components":[{"name":"salt","type":"uint256","internalType":"uint256"},{"name":"maker","type":"uint256","internalType":"Address"},{"name":"receiver","type":"uint256","internalType":"Address"},{"name":"makerAsset","type":"uint256","internalType":"Address"},{"name":"takerAsset","type":"uint256","internalType":"Address"},{"name":"makingAmount","type":"uint256","internalType":"uint256"},{"name":"takingAmount","type":"uint256","internalType":"uint256"},{"name":"makerTraits","type":"uint256","internalType":"MakerTraits"}]},{"name":"extension","type":"bytes","internalType":"bytes"},{"name":"orderHash","type":"bytes32","internalType":"bytes32"},{"name":"","type":"address","internalType":"address"},{"name":"","type":"uint256","internalType":"uint256"},{"name":"","type":"uint256","internalType":"uint256"},{"name":"","type":"uint256","internalType":"uint256"},{"name":"extraData","type":"bytes","internalType":"bytes"}],"outputs":[],"stateMutability":"nonpayable"},{"type":"event","name":"DstEscrowCreated","inputs":[{"name":"escrow","type":"address","indexed":false,"internalType":"address"},{"name":"hashlock","type":"bytes32","indexed":false,"internalType":"bytes32"},{"name":"taker","type":"uint256","indexed":false,"internalType":"Address"}],"anonymous":false},{"type":"event","name":"SrcEscrowCreated","inputs":[{"name":"srcImmutables","type":"tuple","indexed":false,"internalType":"struct IBaseEscrow.Immutables","components":[{"name":"orderHash","type":"bytes32","internalType":"bytes32"},{"name":"hashlock","type":"bytes32","internalType":"bytes32"},{"name":"maker","type":"uint256","internalType":"Address"},{"name":"taker","type":"uint256","internalType":"Address"},{"name":"token","type":"uint256","internalType":"Address"},{"name":"amount","type":"uint256","internalType":"uint256"},{"name":"safetyDeposit","type":"uint256","internalType":"uint256"},{"name":"timelocks","type":"uint256","internalType":"Timelocks"}]},{"name":"dstImmutablesComplement","type":"tuple","indexed":false,"internalType":"struct IEscrowFactory.DstImmutablesComplement","components":[{"name":"maker","type":"uint256","internalType":"Address"},{"name":"amount","type":"uint256","internalType":"uint256"},{"name":"token","type":"uint256","internalType":"Address"},{"name":"safetyDeposit","type":"uint256","internalType":"uint256"},{"name":"chainId","type":"uint256","internalType":"uint256"}]}],"anonymous":false},{"type":"error","name":"AccessDenied","inputs":[]},{"type":"error","name":"FailedDeployment","inputs":[]},{"type":"error","name":"InsufficientBalance","inputs":[{"name":"balance","type":"uint256","internalType":"uint256"},{"name":"needed","type":"uint256","internalType":"uint256"}]},{"type":"error","name":"InsufficientEscrowBalance","inputs":[]},{"type":"error","name":"InvalidCreationTime","inputs":[]},{"type":"error","name":"InvalidPartialFill","inputs":[]},{"type":"error","name":"InvalidProof","inputs":[]},{"type":"error","name":"InvalidSecretsAmount","inputs":[]},{"type":"error","name":"SafeERC20FailedOperation","inputs":[{"name":"token","type":"address","internalType":"address"}]}],"bytecode":{"object":"0x61012060405234801562000011575f80fd5b5060405162003a3b38038062003a3b8339818101604052810190620000379190620002ce565b8585858584855f73ffffffffffffffffffffffffffffffffffffffff1660808173ffffffffffffffffffffffffffffffffffffffff1681525050816040516200008090620001cd565b6200008c919062000377565b604051809103905ff080158015620000a6573d5f803e3d5ffd5b5073ffffffffffffffffffffffffffffffffffffffff1660a08173ffffffffffffffffffffffffffffffffffffffff168152505080604051620000e990620001db565b620000f5919062000377565b604051809103905ff0801580156200010f573d5f803e3d5ffd5b5073ffffffffffffffffffffffffffffffffffffffff1660c08173ffffffffffffffffffffffffffffffffffffffff16815250506200015660a0516200018a60201b60201c565b60e081815250506200017060c0516200018a60201b60201c565b610100818152505050505050505050505050505062000392565b5f6e5af43d82803e903d91602b57fd5bf360205281601152763d602d80600a3d3981f3363d3d373d3d3d363d730000008260881c175f5260376009209050919050565b61121580620017c783390190565b61105f80620029dc83390190565b5f80fd5b5f73ffffffffffffffffffffffffffffffffffffffff82169050919050565b5f6200021882620001ed565b9050919050565b6200022a816200020c565b811462000235575f80fd5b50565b5f8151905062000248816200021f565b92915050565b5f6200025a826200020c565b9050919050565b6200026c816200024e565b811462000277575f80fd5b50565b5f815190506200028a8162000261565b92915050565b5f63ffffffff82169050919050565b620002aa8162000290565b8114620002b5575f80fd5b50565b5f81519050620002c8816200029f565b92915050565b5f805f805f8060c08789031215620002eb57620002ea620001e9565b5b5f620002fa89828a0162000238565b96505060206200030d89828a016200027a565b95505060406200032089828a016200027a565b94505060606200033389828a0162000238565b93505060806200034689828a01620002b8565b92505060a06200035989828a01620002b8565b9150509295509295509295565b620003718162000290565b82525050565b5f6020820190506200038c5f83018462000366565b92915050565b60805160a05160c05160e051610100516113f3620003d45f395f6103b901525f6105fa01525f8181610388015261051401525f6101c201525f50506113f35ff3fe60806040526004361061006f575f3560e01c8063ba5511771161004d578063ba55117714610102578063be58e91c1461012c578063dea024e414610168578063fb6bd47e146101845761006f565b80637040f17314610073578063acf4ce5c1461009d578063adf38ba1146100da575b5f80fd5b34801561007e575f80fd5b506100876101c0565b6040516100949190610b2a565b60405180910390f35b3480156100a8575f80fd5b506100c360048036038101906100be9190610b87565b6101e4565b6040516100d1929190610bd9565b60405180910390f35b3480156100e5575f80fd5b5061010060048036038101906100fb9190610cd8565b610203565b005b34801561010d575f80fd5b50610116610386565b6040516101239190610b2a565b60405180910390f35b348015610137575f80fd5b50610152600480360381019061014d9190610def565b6103aa565b60405161015f9190610b2a565b60405180910390f35b610182600480360381019061017d9190610e1b565b6103e4565b005b34801561018f575f80fd5b506101aa60048036038101906101a59190610def565b6105eb565b6040516101b79190610b2a565b60405180910390f35b7f000000000000000000000000000000000000000000000000000000000000000081565b5f602052805f5260405f205f91509050805f0154908060010154905082565b365f61020f8b8b610625565b91509150363660a08303840191508590505f825f01355f1c90505f8c8260405160200161023d929190610ed8565b6040516020818303038152906040528051906020012090505f6102a884602001358560400135604051602001610274929190610f4a565b6040516020818303038152906040528051906020012085805f01906102999190610f81565b61063e9290919263ffffffff16565b9050827dffffffffffffffffffffffffffffffffffffffffffffffffffffffffffff16815f1c7dffffffffffffffffffffffffffffffffffffffffffffffffffffffffffff1614610325576040517f09bde33900000000000000000000000000000000000000000000000000000000815260040160405180910390fd5b6040518060400160405280600186602001356103419190611010565b815260200185604001358152505f808481526020019081526020015f205f820151815f0155602082015181600101559050505050505050505050505050505050505050565b7f000000000000000000000000000000000000000000000000000000000000000081565b5f6103dd6103b78361068e565b7f00000000000000000000000000000000000000000000000000000000000000006106a5565b9050919050565b5f6103f283608001356106b9565b90505f8360c0013590505f73ffffffffffffffffffffffffffffffffffffffff168273ffffffffffffffffffffffffffffffffffffffff1603610442578360a001358161043f9190611010565b90505b80341461047b576040517f34f5151d00000000000000000000000000000000000000000000000000000000815260040160405180910390fd5b5f8480360381019061048d91906111ea565b90506104a6428260e001516106d890919063ffffffff16565b8160e0018181525050836104c860068360e0015161070b90919063ffffffff16565b1115610500576040517ff4840e9600000000000000000000000000000000000000000000000000000000815260040160405180910390fd5b5f61050a82610755565b90505f61053882347f0000000000000000000000000000000000000000000000000000000000000000610762565b90505f73ffffffffffffffffffffffffffffffffffffffff168573ffffffffffffffffffffffffffffffffffffffff161461059f5761059e33828560a001518873ffffffffffffffffffffffffffffffffffffffff16610797909392919063ffffffff16565b5b7fc30e111dcc74fddc2c3a4d98ffb97adec4485c0a687946bf5b22c2a99c7ff96d81886020013589606001356040516105da9392919061124f565b60405180910390a150505050505050565b5f61061e6105f88361068e565b7f00000000000000000000000000000000000000000000000000000000000000006106a5565b9050919050565b365f61063384846007610819565b915091509250929050565b5f808290505f5b85859050811015610682576106738287878481811061066757610666611284565b5b9050602002013561088e565b91508080600101915050610645565b50809150509392505050565b5f6040516101008382376101008120915050919050565b5f6106b18383306108b8565b905092915050565b5f73ffffffffffffffffffffffffffffffffffffffff82169050919050565b5f60e082901b7fffffffff0000000000000000000000000000000000000000000000000000000019841617905092915050565b5f808390505f6020846006811115610726576107256112b1565b5b61073091906112de565b90508082901c63ffffffff1660e083901c61074b9190611010565b9250505092915050565b5f61010082209050919050565b5f61078e84848473ffffffffffffffffffffffffffffffffffffffff166108f89092919063ffffffff16565b90509392505050565b610813848573ffffffffffffffffffffffffffffffffffffffff166323b872dd8686866040516024016107cc9392919061131f565b604051602081830303815290604052915060e01b6020820180517bffffffffffffffffffffffffffffffffffffffffffffffffffffffff83818316178352505050506109ef565b50505050565b365f6020858590501015610842575f365f905f926108399392919061135c565b91509150610886565b5f365f8735925060208801915060208703905061087e828288600881111561086d5761086c6112b1565b5b86610a8a909392919063ffffffff16565b945094505050505b935093915050565b5f8183106108a5576108a08284610ad7565b6108b0565b6108af8383610ad7565b5b905092915050565b5f604051836040820152846020820152828152600b810160ff815373ffffffffffffffffffffffffffffffffffffffff6055822016925050509392505050565b5f814710156109405747826040517fcf479181000000000000000000000000000000000000000000000000000000008152600401610937929190611396565b60405180910390fd5b763d602d80600a3d3981f3363d3d373d3d3d363d730000008460601b60e81c175f526e5af43d82803e903d91602b57fd5bf38460781b17602052826037600984f590505f73ffffffffffffffffffffffffffffffffffffffff168173ffffffffffffffffffffffffffffffffffffffff16036109e8576040517fb06ebf3d00000000000000000000000000000000000000000000000000000000815260040160405180910390fd5b9392505050565b5f8060205f8451602086015f885af180610a0e576040513d5f823e3d81fd5b3d92505f519150505f8214610a27576001811415610a42565b5f8473ffffffffffffffffffffffffffffffffffffffff163b145b15610a8457836040517f5274afe7000000000000000000000000000000000000000000000000000000008152600401610a7b9190610b2a565b60405180910390fd5b50505050565b365f80639605a01060e01b90508360051b8760201b811c63ffffffff1688821c63ffffffff168189019550818103945087811115610aca57835f5260045ffd5b5050505094509492505050565b5f825f528160205260405f20905092915050565b5f73ffffffffffffffffffffffffffffffffffffffff82169050919050565b5f610b1482610aeb565b9050919050565b610b2481610b0a565b82525050565b5f602082019050610b3d5f830184610b1b565b92915050565b5f604051905090565b5f80fd5b5f80fd5b5f819050919050565b610b6681610b54565b8114610b70575f80fd5b50565b5f81359050610b8181610b5d565b92915050565b5f60208284031215610b9c57610b9b610b4c565b5b5f610ba984828501610b73565b91505092915050565b5f819050919050565b610bc481610bb2565b82525050565b610bd381610b54565b82525050565b5f604082019050610bec5f830185610bbb565b610bf96020830184610bca565b9392505050565b5f80fd5b5f6101008284031215610c1a57610c19610c00565b5b81905092915050565b5f80fd5b5f80fd5b5f80fd5b5f8083601f840112610c4457610c43610c23565b5b8235905067ffffffffffffffff811115610c6157610c60610c27565b5b602083019150836001820283011115610c7d57610c7c610c2b565b5b9250929050565b610c8d81610b0a565b8114610c97575f80fd5b50565b5f81359050610ca881610c84565b92915050565b610cb781610bb2565b8114610cc1575f80fd5b50565b5f81359050610cd281610cae565b92915050565b5f805f805f805f805f806101e08b8d031215610cf757610cf6610b4c565b5b5f610d048d828e01610c04565b9a50506101008b013567ffffffffffffffff811115610d2657610d25610b50565b5b610d328d828e01610c2f565b9950995050610120610d468d828e01610b73565b975050610140610d588d828e01610c9a565b965050610160610d6a8d828e01610cc4565b955050610180610d7c8d828e01610cc4565b9450506101a0610d8e8d828e01610cc4565b9350506101c08b013567ffffffffffffffff811115610db057610daf610b50565b5b610dbc8d828e01610c2f565b92509250509295989b9194979a5092959850565b5f6101008284031215610de657610de5610c00565b5b81905092915050565b5f6101008284031215610e0557610e04610b4c565b5b5f610e1284828501610dd0565b91505092915050565b5f806101208385031215610e3257610e31610b4c565b5b5f610e3f85828601610dd0565b925050610100610e5185828601610cc4565b9150509250929050565b5f819050919050565b610e75610e7082610b54565b610e5b565b82525050565b5f7dffffffffffffffffffffffffffffffffffffffffffffffffffffffffffff82169050919050565b5f8160101b9050919050565b5f610eba82610ea4565b9050919050565b610ed2610ecd82610e7b565b610eb0565b82525050565b5f610ee38285610e64565b602082019150610ef38284610ec1565b601e820191508190509392505050565b5f67ffffffffffffffff82169050919050565b5f8160c01b9050919050565b5f610f2c82610f16565b9050919050565b610f44610f3f82610f03565b610f22565b82525050565b5f610f558285610f33565b600882019150610f658284610e64565b6020820191508190509392505050565b5f80fd5b5f80fd5b5f80fd5b5f8083356001602003843603038112610f9d57610f9c610f75565b5b80840192508235915067ffffffffffffffff821115610fbf57610fbe610f79565b5b602083019250602082023603831315610fdb57610fda610f7d565b5b509250929050565b7f4e487b71000000000000000000000000000000000000000000000000000000005f52601160045260245ffd5b5f61101a82610bb2565b915061102583610bb2565b925082820190508082111561103d5761103c610fe3565b5b92915050565b5f80fd5b5f601f19601f8301169050919050565b7f4e487b71000000000000000000000000000000000000000000000000000000005f52604160045260245ffd5b61108d82611047565b810181811067ffffffffffffffff821117156110ac576110ab611057565b5b80604052505050565b5f6110be610b43565b90506110ca8282611084565b919050565b6110d881610bb2565b81146110e2575f80fd5b50565b5f813590506110f3816110cf565b92915050565b61110281610bb2565b811461110c575f80fd5b50565b5f8135905061111d816110f9565b92915050565b5f610100828403121561113957611138611043565b5b6111446101006110b5565b90505f61115384828501610b73565b5f83015250602061116684828501610b73565b602083015250604061117a848285016110e5565b604083015250606061118e848285016110e5565b60608301525060806111a2848285016110e5565b60808301525060a06111b684828501610cc4565b60a08301525060c06111ca84828501610cc4565b60c08301525060e06111de8482850161110f565b60e08301525092915050565b5f6101008284031215611200576111ff610b4c565b5b5f61120d84828501611123565b91505092915050565b5f819050919050565b5f61123961123461122f84610bb2565b611216565b610bb2565b9050919050565b6112498161121f565b82525050565b5f6060820190506112625f830186610b1b565b61126f6020830185610bca565b61127c6040830184611240565b949350505050565b7f4e487b71000000000000000000000000000000000000000000000000000000005f52603260045260245ffd5b7f4e487b71000000000000000000000000000000000000000000000000000000005f52602160045260245ffd5b5f6112e882610bb2565b91506112f383610bb2565b925082820261130181610bb2565b9150828204841483151761131857611317610fe3565b5b5092915050565b5f6060820190506113325f830186610b1b565b61133f6020830185610b1b565b61134c6040830184610bbb565b949350505050565b5f80fd5b5f80fd5b5f808585111561136f5761136e611354565b5b838611156113805761137f611358565b5b6001850283019150848603905094509492505050565b5f6040820190506113a95f830185610bbb565b6113b66020830184610bbb565b939250505056fea2646970667358221220b04255021cedc458319d87aff3358a9cae5c0d6ded85f8ad0ec7b2f30948383564736f6c6343000817003360e06040523373ffffffffffffffffffffffffffffffffffffffff1660a09073ffffffffffffffffffffffffffffffffffffffff1681525062000048306200009760201b60201c565b60c0908152503480156200005a575f80fd5b50604051620012153803806200121583398181016040528101906200008091906200011c565b808063ffffffff166080818152505050506200014c565b5f6e5af43d82803e903d91602b57fd5bf360205281601152763d602d80600a3d3981f3363d3d373d3d3d363d730000008260881c175f5260376009209050919050565b5f80fd5b5f63ffffffff82169050919050565b620000f881620000de565b811462000103575f80fd5b50565b5f815190506200011681620000ed565b92915050565b5f60208284031215620001345762000133620000da565b5b5f620001438482850162000106565b91505092915050565b60805160a05160c0516110896200018c5f395f81816103a301526108e501525f818161037f015261090601525f8181610446015261075801526110895ff3fe608060405234801561000f575f80fd5b5060043610610091575f3560e01c80634649088b116100645780634649088b146101095780636c10c0c81461012557806390d3252f14610141578063daff233e1461015d578063f56cd69c1461017957610091565b80630af975581461009557806323305703146100b15780632dd31000146100cd57806334862b6a146100eb575b5f80fd5b6100af60048036038101906100aa9190610d0b565b610197565b005b6100cb60048036038101906100c69190610d0b565b610257565b005b6100d561037d565b6040516100e29190610d89565b60405180910390f35b6100f36103a1565b6040516101009190610db1565b60405180910390f35b610123600480360381019061011e9190610e27565b6103c5565b005b61013f600480360381019061013a9190610e78565b6104fe565b005b61015b60048036038101906101569190610ec9565b610625565b005b61017760048036038101906101729190610ec9565b6106f7565b005b610181610756565b60405161018e9190610f04565b60405180910390f35b6101af60018260e0013561077a90919063ffffffff16565b804210156101e9576040517f6f7eac2600000000000000000000000000000000000000000000000000000000815260040160405180910390fd5b61020160028360e0013561077a90919063ffffffff16565b80421061023a576040517f6f7eac2600000000000000000000000000000000000000000000000000000000815260040160405180910390fd5b6102518461024b85606001356107c4565b856107e3565b50505050565b8061026581606001356107c4565b73ffffffffffffffffffffffffffffffffffffffff163373ffffffffffffffffffffffffffffffffffffffff16146102c9576040517f48f5c3ed00000000000000000000000000000000000000000000000000000000815260040160405180910390fd5b6102e05f8360e0013561077a90919063ffffffff16565b8042101561031a576040517f6f7eac2600000000000000000000000000000000000000000000000000000000815260040160405180910390fd5b61033260028460e0013561077a90919063ffffffff16565b80421061036b576040517f6f7eac2600000000000000000000000000000000000000000000000000000000815260040160405180910390fd5b6103768533866107e3565b5050505050565b7f000000000000000000000000000000000000000000000000000000000000000081565b7f000000000000000000000000000000000000000000000000000000000000000081565b806103d381606001356107c4565b73ffffffffffffffffffffffffffffffffffffffff163373ffffffffffffffffffffffffffffffffffffffff1614610437576040517f48f5c3ed00000000000000000000000000000000000000000000000000000000815260040160405180910390fd5b81610441816108bc565b6104787f00000000000000000000000000000000000000000000000000000000000000008460e0013561097b90919063ffffffff16565b804210156104b2576040517f6f7eac2600000000000000000000000000000000000000000000000000000000815260040160405180910390fd5b6104bd86338761098b565b7fc4474c2790e13695f6d2b6f1d8e164290b55370f87a542fd7711abe0a1bf40ac86866040516104ee929190610f1d565b60405180910390a1505050505050565b8061050c81606001356107c4565b73ffffffffffffffffffffffffffffffffffffffff163373ffffffffffffffffffffffffffffffffffffffff1614610570576040517f48f5c3ed00000000000000000000000000000000000000000000000000000000815260040160405180910390fd5b6105875f8360e0013561077a90919063ffffffff16565b804210156105c1576040517f6f7eac2600000000000000000000000000000000000000000000000000000000815260040160405180910390fd5b6105d960028460e0013561077a90919063ffffffff16565b804210610612576040517f6f7eac2600000000000000000000000000000000000000000000000000000000815260040160405180910390fd5b61061d8686866107e3565b505050505050565b8061063381606001356107c4565b73ffffffffffffffffffffffffffffffffffffffff163373ffffffffffffffffffffffffffffffffffffffff1614610697576040517f48f5c3ed00000000000000000000000000000000000000000000000000000000815260040160405180910390fd5b6106af60028360e0013561077a90919063ffffffff16565b804210156106e9576040517f6f7eac2600000000000000000000000000000000000000000000000000000000815260040160405180910390fd5b6106f2836109fe565b505050565b61070f60038260e0013561077a90919063ffffffff16565b80421015610749576040517f6f7eac2600000000000000000000000000000000000000000000000000000000815260040160405180910390fd5b610752826109fe565b5050565b7f000000000000000000000000000000000000000000000000000000000000000081565b5f808390505f602084600681111561079557610794610f44565b5b61079f9190610f9e565b90508082901c63ffffffff1660e083901c6107ba9190610fdf565b9250505092915050565b5f73ffffffffffffffffffffffffffffffffffffffff82169050919050565b806107ed816108bc565b838280602001356107fd83610a8d565b14610834576040517fabab6bd700000000000000000000000000000000000000000000000000000000815260040160405180910390fd5b61086f858560a0013561084a87608001356107c4565b73ffffffffffffffffffffffffffffffffffffffff16610a9c9092919063ffffffff16565b61087d338560c00135610b1b565b7f0ce781a18c10c8289803c7c4cfd532d797113c4b41c9701ffad7d0a632ac555b866040516108ac9190610db1565b60405180910390a1505050505050565b5f6108c682610bbf565b90503073ffffffffffffffffffffffffffffffffffffffff1661092a827f00000000000000000000000000000000000000000000000000000000000000007f0000000000000000000000000000000000000000000000000000000000000000610bd6565b73ffffffffffffffffffffffffffffffffffffffff1614610977576040517fa269484a00000000000000000000000000000000000000000000000000000000815260040160405180910390fd5b5050565b5f60e083901c8201905092915050565b5f73ffffffffffffffffffffffffffffffffffffffff168373ffffffffffffffffffffffffffffffffffffffff16036109cd576109c88282610b1b565b6109f9565b6109f882828573ffffffffffffffffffffffffffffffffffffffff16610a9c9092919063ffffffff16565b5b505050565b80610a08816108bc565b610a4f610a1883604001356107c4565b8360a00135610a2a85608001356107c4565b73ffffffffffffffffffffffffffffffffffffffff16610a9c9092919063ffffffff16565b610a5d338360c00135610b1b565b7f6e3be9294e58d10b9c8053cfd5e09871b67e442fe394d6b0870d336b9df984a960405160405180910390a15050565b5f815f5260205f209050919050565b610b16838473ffffffffffffffffffffffffffffffffffffffff1663a9059cbb8585604051602401610acf929190610f1d565b604051602081830303815290604052915060e01b6020820180517bffffffffffffffffffffffffffffffffffffffffffffffffffffffff8381831617835250505050610c16565b505050565b5f8273ffffffffffffffffffffffffffffffffffffffff1682604051610b409061103f565b5f6040518083038185875af1925050503d805f8114610b7a576040519150601f19603f3d011682016040523d82523d5f602084013e610b7f565b606091505b5050905080610bba576040517f8a0332d500000000000000000000000000000000000000000000000000000000815260040160405180910390fd5b505050565b5f6040516101008382376101008120915050919050565b5f604051836040820152846020820152828152600b810160ff815373ffffffffffffffffffffffffffffffffffffffff6055822016925050509392505050565b5f8060205f8451602086015f885af180610c35576040513d5f823e3d81fd5b3d92505f519150505f8214610c4e576001811415610c69565b5f8473ffffffffffffffffffffffffffffffffffffffff163b145b15610cab57836040517f5274afe7000000000000000000000000000000000000000000000000000000008152600401610ca29190610d89565b60405180910390fd5b50505050565b5f80fd5b5f819050919050565b610cc781610cb5565b8114610cd1575f80fd5b50565b5f81359050610ce281610cbe565b92915050565b5f80fd5b5f6101008284031215610d0257610d01610ce8565b5b81905092915050565b5f806101208385031215610d2257610d21610cb1565b5b5f610d2f85828601610cd4565b9250506020610d4085828601610cec565b9150509250929050565b5f73ffffffffffffffffffffffffffffffffffffffff82169050919050565b5f610d7382610d4a565b9050919050565b610d8381610d69565b82525050565b5f602082019050610d9c5f830184610d7a565b92915050565b610dab81610cb5565b82525050565b5f602082019050610dc45f830184610da2565b92915050565b610dd381610d69565b8114610ddd575f80fd5b50565b5f81359050610dee81610dca565b92915050565b5f819050919050565b610e0681610df4565b8114610e10575f80fd5b50565b5f81359050610e2181610dfd565b92915050565b5f805f6101408486031215610e3f57610e3e610cb1565b5b5f610e4c86828701610de0565b9350506020610e5d86828701610e13565b9250506040610e6e86828701610cec565b9150509250925092565b5f805f6101408486031215610e9057610e8f610cb1565b5b5f610e9d86828701610cd4565b9350506020610eae86828701610de0565b9250506040610ebf86828701610cec565b9150509250925092565b5f6101008284031215610edf57610ede610cb1565b5b5f610eec84828501610cec565b91505092915050565b610efe81610df4565b82525050565b5f602082019050610f175f830184610ef5565b92915050565b5f604082019050610f305f830185610d7a565b610f3d6020830184610ef5565b9392505050565b7f4e487b71000000000000000000000000000000000000000000000000000000005f52602160045260245ffd5b7f4e487b71000000000000000000000000000000000000000000000000000000005f52601160045260245ffd5b5f610fa882610df4565b9150610fb383610df4565b9250828202610fc181610df4565b91508282048414831517610fd857610fd7610f71565b5b5092915050565b5f610fe982610df4565b9150610ff483610df4565b925082820190508082111561100c5761100b610f71565b5b92915050565b5f81905092915050565b50565b5f61102a5f83611012565b91506110358261101c565b5f82019050919050565b5f6110498261101f565b915081905091905056fea2646970667358221220ec53df415927c031c4b83607465f60fec9d7ff21d6dfcd1e579181a28ce5af8864736f6c6343000817003360e06040523373ffffffffffffffffffffffffffffffffffffffff1660a09073ffffffffffffffffffffffffffffffffffffffff168152506100463061009160201b60201c565b60c090815250348015610057575f80fd5b506040516200105f3803806200105f833981810160405281019061007b9190610111565b808063ffffffff1660808181525050505061013c565b5f6e5af43d82803e903d91602b57fd5bf360205281601152763d602d80600a3d3981f3363d3d373d3d3d363d730000008260881c175f5260376009209050919050565b5f80fd5b5f63ffffffff82169050919050565b6100f0816100d8565b81146100fa575f80fd5b50565b5f8151905061010b816100e7565b92915050565b5f60208284031215610126576101256100d4565b5b5f610133848285016100fd565b91505092915050565b60805160a05160c051610ee36200017c5f395f8181610348015261081f01525f8181610324015261084001525f81816103eb01526105da0152610ee35ff3fe608060405234801561000f575f80fd5b506004361061007b575f3560e01c806334862b6a1161005957806334862b6a146100d55780634649088b146100f357806390d3252f1461010f578063f56cd69c1461012b5761007b565b80630af975581461007f578063233057031461009b5780632dd31000146100b7575b5f80fd5b61009960048036038101906100949190610bb6565b610149565b005b6100b560048036038101906100b09190610bb6565b6101fc565b005b6100bf610322565b6040516100cc9190610c34565b60405180910390f35b6100dd610346565b6040516100ea9190610c5c565b60405180910390f35b61010d60048036038101906101089190610cd2565b61036a565b005b61012960048036038101906101249190610d23565b6104a3565b005b6101336105d8565b6040516101409190610d5e565b60405180910390f35b61016160058260e001356105fc90919063ffffffff16565b8042101561019b576040517f6f7eac2600000000000000000000000000000000000000000000000000000000815260040160405180910390fd5b6101b360068360e001356105fc90919063ffffffff16565b8042106101ec576040517f6f7eac2600000000000000000000000000000000000000000000000000000000815260040160405180910390fd5b6101f68484610646565b50505050565b8061020a81606001356107d7565b73ffffffffffffffffffffffffffffffffffffffff163373ffffffffffffffffffffffffffffffffffffffff161461026e576040517f48f5c3ed00000000000000000000000000000000000000000000000000000000815260040160405180910390fd5b61028660048360e001356105fc90919063ffffffff16565b804210156102c0576040517f6f7eac2600000000000000000000000000000000000000000000000000000000815260040160405180910390fd5b6102d860068460e001356105fc90919063ffffffff16565b804210610311576040517f6f7eac2600000000000000000000000000000000000000000000000000000000815260040160405180910390fd5b61031b8585610646565b5050505050565b7f000000000000000000000000000000000000000000000000000000000000000081565b7f000000000000000000000000000000000000000000000000000000000000000081565b8061037881606001356107d7565b73ffffffffffffffffffffffffffffffffffffffff163373ffffffffffffffffffffffffffffffffffffffff16146103dc576040517f48f5c3ed00000000000000000000000000000000000000000000000000000000815260040160405180910390fd5b816103e6816107f6565b61041d7f00000000000000000000000000000000000000000000000000000000000000008460e001356108b590919063ffffffff16565b80421015610457576040517f6f7eac2600000000000000000000000000000000000000000000000000000000815260040160405180910390fd5b6104628633876108c5565b7fc4474c2790e13695f6d2b6f1d8e164290b55370f87a542fd7711abe0a1bf40ac8686604051610493929190610d77565b60405180910390a1505050505050565b806104b181606001356107d7565b73ffffffffffffffffffffffffffffffffffffffff163373ffffffffffffffffffffffffffffffffffffffff1614610515576040517f48f5c3ed00000000000000000000000000000000000000000000000000000000815260040160405180910390fd5b8161051f816107f6565b61053760068460e001356105fc90919063ffffffff16565b80421015610571576040517f6f7eac2600000000000000000000000000000000000000000000000000000000815260040160405180910390fd5b61059861058185608001356107d7565b61058e86606001356107d7565b8660a001356108c5565b6105a6338560c00135610938565b7f6e3be9294e58d10b9c8053cfd5e09871b67e442fe394d6b0870d336b9df984a960405160405180910390a150505050565b7f000000000000000000000000000000000000000000000000000000000000000081565b5f808390505f602084600681111561061757610616610d9e565b5b6106219190610df8565b90508082901c63ffffffff1660e083901c61063c9190610e39565b9250505092915050565b80610650816107f6565b82828060200135610660836109dc565b14610697576040517fabab6bd700000000000000000000000000000000000000000000000000000000815260040160405180910390fd5b5f6106a585608001356107d7565b90505f6106b586604001356107d7565b90505f73ffffffffffffffffffffffffffffffffffffffff168273ffffffffffffffffffffffffffffffffffffffff1603610759578073ffffffffffffffffffffffffffffffffffffffff168660a0013560405161071290610e99565b5f6040518083038185875af1925050503d805f811461074c576040519150601f19603f3d011682016040523d82523d5f602084013e610751565b606091505b505050610789565b610788818760a001358473ffffffffffffffffffffffffffffffffffffffff166109eb9092919063ffffffff16565b5b610797338760c00135610938565b7f0ce781a18c10c8289803c7c4cfd532d797113c4b41c9701ffad7d0a632ac555b876040516107c69190610c5c565b60405180910390a150505050505050565b5f73ffffffffffffffffffffffffffffffffffffffff82169050919050565b5f61080082610a6a565b90503073ffffffffffffffffffffffffffffffffffffffff16610864827f00000000000000000000000000000000000000000000000000000000000000007f0000000000000000000000000000000000000000000000000000000000000000610a81565b73ffffffffffffffffffffffffffffffffffffffff16146108b1576040517fa269484a00000000000000000000000000000000000000000000000000000000815260040160405180910390fd5b5050565b5f60e083901c8201905092915050565b5f73ffffffffffffffffffffffffffffffffffffffff168373ffffffffffffffffffffffffffffffffffffffff1603610907576109028282610938565b610933565b61093282828573ffffffffffffffffffffffffffffffffffffffff166109eb9092919063ffffffff16565b5b505050565b5f8273ffffffffffffffffffffffffffffffffffffffff168260405161095d90610e99565b5f6040518083038185875af1925050503d805f8114610997576040519150601f19603f3d011682016040523d82523d5f602084013e61099c565b606091505b50509050806109d7576040517f8a0332d500000000000000000000000000000000000000000000000000000000815260040160405180910390fd5b505050565b5f815f5260205f209050919050565b610a65838473ffffffffffffffffffffffffffffffffffffffff1663a9059cbb8585604051602401610a1e929190610d77565b604051602081830303815290604052915060e01b6020820180517bffffffffffffffffffffffffffffffffffffffffffffffffffffffff8381831617835250505050610ac1565b505050565b5f6040516101008382376101008120915050919050565b5f604051836040820152846020820152828152600b810160ff815373ffffffffffffffffffffffffffffffffffffffff6055822016925050509392505050565b5f8060205f8451602086015f885af180610ae0576040513d5f823e3d81fd5b3d92505f519150505f8214610af9576001811415610b14565b5f8473ffffffffffffffffffffffffffffffffffffffff163b145b15610b5657836040517f5274afe7000000000000000000000000000000000000000000000000000000008152600401610b4d9190610c34565b60405180910390fd5b50505050565b5f80fd5b5f819050919050565b610b7281610b60565b8114610b7c575f80fd5b50565b5f81359050610b8d81610b69565b92915050565b5f80fd5b5f6101008284031215610bad57610bac610b93565b5b81905092915050565b5f806101208385031215610bcd57610bcc610b5c565b5b5f610bda85828601610b7f565b9250506020610beb85828601610b97565b9150509250929050565b5f73ffffffffffffffffffffffffffffffffffffffff82169050919050565b5f610c1e82610bf5565b9050919050565b610c2e81610c14565b82525050565b5f602082019050610c475f830184610c25565b92915050565b610c5681610b60565b82525050565b5f602082019050610c6f5f830184610c4d565b92915050565b610c7e81610c14565b8114610c88575f80fd5b50565b5f81359050610c9981610c75565b92915050565b5f819050919050565b610cb181610c9f565b8114610cbb575f80fd5b50565b5f81359050610ccc81610ca8565b92915050565b5f805f6101408486031215610cea57610ce9610b5c565b5b5f610cf786828701610c8b565b9350506020610d0886828701610cbe565b9250506040610d1986828701610b97565b9150509250925092565b5f6101008284031215610d3957610d38610b5c565b5b5f610d4684828501610b97565b91505092915050565b610d5881610c9f565b82525050565b5f602082019050610d715f830184610d4f565b92915050565b5f604082019050610d8a5f830185610c25565b610d976020830184610d4f565b9392505050565b7f4e487b71000000000000000000000000000000000000000000000000000000005f52602160045260245ffd5b7f4e487b71000000000000000000000000000000000000000000000000000000005f52601160045260245ffd5b5f610e0282610c9f565b9150610e0d83610c9f565b9250828202610e1b81610c9f565b91508282048414831517610e3257610e31610dcb565b5b5092915050565b5f610e4382610c9f565b9150610e4e83610c9f565b9250828201905080821115610e6657610e65610dcb565b5b92915050565b5f81905092915050565b50565b5f610e845f83610e6c565b9150610e8f82610e76565b5f82019050919050565b5f610ea382610e79565b915081905091905056fea2646970667358221220353b81f55872a1a79ac48619de8f8bcc268f182945e6b37021f06cd03c586cef64736f6c63430008170033","linkReferences":{}},"methodIdentifiers":{"ESCROW_DST_IMPLEMENTATION()":"ba551177","ESCROW_SRC_IMPLEMENTATION()":"7040f173","addressOfEscrowDst((bytes32,bytes32,uint256,uint256,uint256,uint256,uint256,uint256))":"be58e91c","addressOfEscrowSrc((bytes32,bytes32,uint256,uint256,uint256,uint256,uint256,uint256))":"fb6bd47e","createDstEscrow((bytes32,bytes32,uint256,uint256,uint256,uint256,uint256,uint256),uint256)":"dea024e4","lastValidated(bytes32)":"acf4ce5c","takerInteraction((uint256,uint256,uint256,uint256,uint256,uint256,uint256,uint256),bytes,bytes32,address,uint256,uint256,uint256,bytes)":"adf38ba1"},"id":14}